:100000000C942A000C94B6000C94DD000C940401AE
:100010000C9434000C9434000C9434000C94340090
:100020000C9434000C9434000C9434000C94340080
:100030000C9434000C9434000C9434000C94340070
:100040000C9434000C9434000C9434000C94340060
:100050000C94340011241FBECFE5D8E0DEBFCDBF25
:100060000E9436000C942B010C9400008FEF8ABB89
:1000700087BB14BA81B38B7F81BB82B3846082BBA0
:1000800081B3877F81BB82B3886082BB87B38B7F5C
:1000900087BB88B3846088BB80EE8BBF78941BBA23
:1000A00018BA9C9B17C08BB384608BBB8BB38061E9
:1000B0008BBB88B3816088BB88B3886088BB2FEF17
:1000C00080E792E0215080409040E1F700C00000BE
:1000D0001BBA18BA999B17C08BB381608BBB8BB3CB
:1000E00080628BBB88B3826088BB88B3886088BB22
:1000F0002FEF80E792E0215080409040E1F700C070
:1001000000001BBA18BA9A9B17C08BB381608BBBD7
:100110008BB388608BBB88B3806488BB88B38061F5
:1001200088BB2FEF80E792E0215080409040E1F7BC
:1001300000C000001BBA18BA9B9BB1CF8BB3826082
:100140008BBB8BB388608BBB88B3816088BB88B363
:10015000806288BB2FEF80E792E021508040904082
:10016000E1F700C000001BBA18BA99CF1F920F9296
:100170000FB60F9211242F938F939F931BBA18BA27
:100180008BB384608BBB8BB380618BBB88B3816086
:1001900088BB88B3886088BB2FEF82E597E0215049
:1001A00080409040E1F700C000009F918F912F9117
:1001B0000F900FBE0F901F9018951F920F920FB6C1
:1001C0000F9211242F938F939F931BBA18BA8BB35E
:1001D00081608BBB8BB380628BBB88B3826088BB32
:1001E00088B3886088BB2FEF82E597E0215080407C
:1001F0009040E1F700C000009F918F912F910F90E8
:100200000FBE0F901F9018951F920F920FB60F926E
:1002100011242F938F939F931BBA18BA8BB38160CD
:100220008BBB8BB388608BBB88B3806488BB88B37F
:10023000806188BB2FEF82E597E02150804090409D
:10024000E1F700C000009F918F912F910F900FBE9A
:0A0250000F901F901895F894FFCF4F
:00000001FF
